{
  "contractName": "Consumption",
  "abi": [
    {
      "constant": false,
      "inputs": [
        {
          "name": "_consumption",
          "type": "uint256"
        },
        {
          "name": "_date",
          "type": "string"
        },
        {
          "name": "_timestamp",
          "type": "uint256"
        }
      ],
      "name": "consume",
      "outputs": [],
      "payable": false,
      "stateMutability": "nonpayable",
      "type": "function"
    },
    {
      "constant": true,
      "inputs": [
        {
          "name": "_account",
          "type": "address"
        },
        {
          "name": "_date",
          "type": "string"
        },
        {
          "name": "_index",
          "type": "uint256"
        }
      ],
      "name": "retrieveConsumption",
      "outputs": [
        {
          "name": "",
          "type": "uint256"
        },
        {
          "name": "",
          "type": "uint256"
        }
      ],
      "payable": false,
      "stateMutability": "view",
      "type": "function"
    },
    {
      "constant": false,
      "inputs": [
        {
          "name": "_address",
          "type": "address"
        },
        {
          "name": "_authorize",
          "type": "bool"
        }
      ],
      "name": "authorize",
      "outputs": [],
      "payable": false,
      "stateMutability": "nonpayable",
      "type": "function"
    },
    {
      "constant": true,
      "inputs": [
        {
          "name": "_addressadmin",
          "type": "address"
        }
      ],
      "name": "isAuthorized",
      "outputs": [
        {
          "name": "",
          "type": "bool"
        }
      ],
      "payable": false,
      "stateMutability": "view",
      "type": "function"
    }
  ],
  "bytecode": "0x608060405234801561001057600080fd5b5061041f806100206000396000f3006080604052600436106100615763ffffffff7c01000000000000000000000000000000000000000000000000000000006000350416632d1fb389811461006657806351ee26ba1461008e57806393519419146100ee578063fe9fbb8014610170575b600080fd5b34801561007257600080fd5b5061008c600160a060020a036004351660243515156101a5565b005b34801561009a57600080fd5b5060408051602060046024803582810135601f810185900485028601850190965285855261008c95833595369560449491939091019190819084018382808284375094975050933594506101dd9350505050565b3480156100fa57600080fd5b5060408051602060046024803582810135601f8101859004850286018501909652858552610157958335600160a060020a031695369560449491939091019190819084018382808284375094975050933594506102849350505050565b6040805192835260208301919091528051918290030190f35b34801561017c57600080fd5b50610191600160a060020a03600435166103c8565b604080519115158252519081900360200190f35b336000908152600160209081526040808320600160a060020a0395909516835293905291909120805460ff1916911515919091179055565b33600090815260208181526040918290209151845185928291908401908083835b6020831061021d5780518252601f1990920191602091820191016101fe565b51815160209384036101000a6000190180199092169116179052920194855250604080519485900382018520858201909152948452838101968752845460018082018755600096875291909520935160029095029093019384555050925192019190915550565b600160a060020a03831660009081526020818152604080832090518551849387929182918401908083835b602083106102ce5780518252601f1990920191602091820191016102af565b51815160209384036101000a600019018019909216911617905292019485525060405193849003019092208054909250859150811061030957fe5b90600052602060002090600202016000015460008087600160a060020a0316600160a060020a03168152602001908152602001600020856040518082805190602001908083835b6020831061036f5780518252601f199092019160209182019101610350565b51815160209384036101000a60001901801990921691161790529201948552506040519384900301909220805490925086915081106103aa57fe5b90600052602060002090600202016001015491509150935093915050565b336000908152600160209081526040808320600160a060020a03949094168352929052205460ff16905600a165627a7a723058207414ef53e83d7836c21350a2a189f3d35e1362157ad6311960577473032ab6090029",
  "source": "pragma solidity ^0.4.24;\n//pragma experimental ABIEncoderV2;\ncontract Consumption {\n    mapping (address => mapping (string => Data[]))  consumption;\n    mapping (address => mapping (address => bool)) authorization;\n    \n    struct Data {\n        uint timestamp;\n        uint value;\n    }\n    function consume(uint _consumption, string _date, uint _timestamp) public {\n        //bytes32 hash = keccak256(_date);\n        consumption[msg.sender][_date].push(Data({timestamp : _timestamp,value:_consumption})) ;\n    }\n    \n    function retrieveConsumption(address _account, string _date, uint _index) public view returns (uint,uint) {\n        //require(authorization[_account][msg.sender]);\n        return (consumption[_account][_date][_index].timestamp,consumption[_account][_date][_index].value);\n    }\n    \n    function authorize(address _address, bool _authorize) public {\n        authorization[msg.sender][_address] = _authorize;\n    }\n    function isAuthorized(address _addressadmin) public view returns (bool) {\n        return authorization[msg.sender][_addressadmin];\n    }\n}\n",
  "sourcePath": "/home/aznagy/work/privatetx/tutorial-private-tx/contracts/Consumption.sol",
  "compiler": {
    "name": "solc",
    "version": "0.4.24+commit.e67f0147.Emscripten.clang"
  },
  "schemaVersion": "2.0.1",
  "updatedAt": "2018-10-23T08:55:34.685Z"
}