{
  "contractName": "PrivateContract",
  "abi": [
    {
      "constant": true,
      "inputs": [],
      "name": "code",
      "outputs": [
        {
          "name": "",
          "type": "bytes"
        }
      ],
      "payable": false,
      "stateMutability": "view",
      "type": "function"
    },
    {
      "constant": true,
      "inputs": [
        {
          "name": "",
          "type": "uint256"
        }
      ],
      "name": "validators",
      "outputs": [
        {
          "name": "",
          "type": "address"
        }
      ],
      "payable": false,
      "stateMutability": "view",
      "type": "function"
    },
    {
      "constant": true,
      "inputs": [],
      "name": "nonce",
      "outputs": [
        {
          "name": "",
          "type": "uint256"
        }
      ],
      "payable": false,
      "stateMutability": "view",
      "type": "function"
    },
    {
      "constant": true,
      "inputs": [],
      "name": "state",
      "outputs": [
        {
          "name": "",
          "type": "bytes"
        }
      ],
      "payable": false,
      "stateMutability": "view",
      "type": "function"
    },
    {
      "inputs": [
        {
          "name": "initialValidators",
          "type": "address[]"
        },
        {
          "name": "initialCode",
          "type": "bytes"
        },
        {
          "name": "initialState",
          "type": "bytes"
        }
      ],
      "payable": false,
      "stateMutability": "nonpayable",
      "type": "constructor"
    },
    {
      "constant": true,
      "inputs": [],
      "name": "getValidators",
      "outputs": [
        {
          "name": "",
          "type": "address[]"
        }
      ],
      "payable": false,
      "stateMutability": "view",
      "type": "function"
    },
    {
      "constant": false,
      "inputs": [
        {
          "name": "newState",
          "type": "bytes"
        },
        {
          "name": "v",
          "type": "uint8[]"
        },
        {
          "name": "r",
          "type": "bytes32[]"
        },
        {
          "name": "s",
          "type": "bytes32[]"
        }
      ],
      "name": "setState",
      "outputs": [],
      "payable": false,
      "stateMutability": "nonpayable",
      "type": "function"
    }
  ],
  "bytecode": "0x6060604052341561000f57600080fd5b604051610915380380610915833981016040528080518201919060200180518201919060200180519091019050600083805161004f929160200190610086565b5060028280516100639291602001906100ed565b5060018180516100779291602001906100ed565b50506001600355506101a89050565b8280548282559060005260206000209081019282156100dd579160200282015b828111156100dd5782518254600160a060020a031916600160a060020a0391909116178255602092909201916001909101906100a6565b506100e9929150610167565b5090565b828054600181600116156101000203166002900490600052602060002090601f016020900481019282601f1061012e57805160ff191683800117855561015b565b8280016001018555821561015b579182015b8281111561015b578251825591602001919060010190610140565b506100e992915061018e565b61018b91905b808211156100e9578054600160a060020a031916815560010161016d565b90565b61018b91905b808211156100e95760008155600101610194565b61075e806101b76000396000f3006060604052600436106100775763ffffffff7c010000000000000000000000000000000000000000000000000000000060003504166317ac53a2811461007c57806324c12bf61461018f57806335aa2e4414610219578063affed0e014610258578063b7ab4db51461027d578063c19d93fb146102e3575b600080fd5b341561008757600080fd5b61018d60046024813581810190830135806020601f820181900481020160405190810160405281815292919060208401838380828437820191505050505050919080359060200190820180359060200190808060200260200160405190810160405280939291908181526020018383602002808284378201915050505050509190803590602001908201803590602001908080602002602001604051908101604052809392919081815260200183836020028082843782019150505050505091908035906020019082018035906020019080806020026020016040519081016040528093929190818152602001838360200280828437509496506102f695505050505050565b005b341561019a57600080fd5b6101a26104ce565b60405160208082528190810183818151815260200191508051906020019080838360005b838110156101de5780820151838201526020016101c6565b50505050905090810190601f16801561020b5780820380516001836020036101000a031916815260200191505b509250505060405180910390f35b341561022457600080fd5b61022f60043561056c565b60405173ffffffffffffffffffffffffffffffffffffffff909116815260200160405180910390f35b341561026357600080fd5b61026b6105a1565b60405190815260200160405180910390f35b341561028857600080fd5b6102906105a7565b60405160208082528190810183818151815260200191508051906020019060200280838360005b838110156102cf5780820151838201526020016102b7565b505050509050019250505060405180910390f35b34156102ee57600080fd5b6101a261061d565b6000806040805190810160405280876040518082805190602001908083835b602083106103345780518252601f199092019160209182019101610315565b6001836020036101000a038019825116818451161790925250505091909101925060409150505190819003902081526003546020909101526040518082604080838360005b83811015610391578082015183820152602001610379565b5050505090500191505060405180910390209150600090505b6000548110156104a95760008054829081106103c257fe5b60009182526020909120015473ffffffffffffffffffffffffffffffffffffffff166001838784815181106103f357fe5b9060200190602002015187858151811061040957fe5b9060200190602002015187868151811061041f57fe5b906020019060200201516040516000815260200160405260405193845260ff9092166020808501919091526040808501929092526060840192909252608090920191516020810390808403906000865af1151561047b57600080fd5b50506020604051035173ffffffffffffffffffffffffffffffffffffffff16146104a157fe5b6001016103aa565b60018680516104bc929160200190610688565b50506003805460010190555050505050565b60028054600181600116156101000203166002900480601f0160208091040260200160405190810160405280929190818152602001828054600181600116156101000203166002900480156105645780601f1061053957610100808354040283529160200191610564565b820191906000526020600020905b81548152906001019060200180831161054757829003601f168201915b505050505081565b600080548290811061057a57fe5b60009182526020909120015473ffffffffffffffffffffffffffffffffffffffff16905081565b60035481565b6105af610706565b600080548060200260200160405190810160405280929190818152602001828054801561061257602002820191906000526020600020905b815473ffffffffffffffffffffffffffffffffffffffff1681526001909101906020018083116105e7575b505050505090505b90565b60018054600181600116156101000203166002900480601f0160208091040260200160405190810160405280929190818152602001828054600181600116156101000203166002900480156105645780601f1061053957610100808354040283529160200191610564565b828054600181600116156101000203166002900490600052602060002090601f016020900481019282601f106106c957805160ff19168380011785556106f6565b828001600101855582156106f6579182015b828111156106f65782518255916020019190600101906106db565b50610702929150610718565b5090565b60206040519081016040526000815290565b61061a91905b80821115610702576000815560010161071e5600a165627a7a723058209232f1dc1c4770932a73dc18750c102fa3360d4b046e3157e004aad59a43fd970029",
  "source": "// Private Transactions State Storage\n//\n// Copyright 2018 Parity Technologies Ltd.\n//\n// Licensed under the Apache License, Version 2.0 (the \"License\");\n// you may not use this file except in compliance with the License.\n// You may obtain a copy of the License at\n//\n//     http://www.apache.org/licenses/LICENSE-2.0\n//\n// Unless required by applicable law or agreed to in writing, software\n// distributed under the License is distributed on an \"AS IS\" BASIS,\n// WITHOUT WARRANTIES OR CONDITIONS OF ANY KIND, either express or implied.\n// See the License for the specific language governing permissions and\n// limitations under the License.\n\n// This contract keeps track of a private transaction state (supposedly encrypted)\n// and allows its change only if all the Validators (from a static list, initialized in constructor)\n// have signed a new state (hashed together with a current nonce, for replay protection).\n\npragma solidity ^0.4.18;\n\n\ncontract PrivateContract {\n    address[] public validators;\n    bytes public state;\n    bytes public code;\n    uint256 public nonce;\n\n    function PrivateContract(\n        address[] initialValidators,\n        bytes initialCode,\n        bytes initialState\n    )\n        public\n    {\n        validators = initialValidators;\n        code = initialCode;\n        state = initialState;\n        nonce = 1;\n    }\n\n    function getValidators()\n        public\n        constant\n        returns (address[])\n    {\n        return validators;\n    }\n\n    function setState(\n        bytes newState,\n        uint8[] v,\n        bytes32[] r,\n        bytes32[] s\n    )\n        public\n    {\n        var noncedStateHash = keccak256([keccak256(newState), bytes32(nonce)]);\n\n        for (uint i = 0; i < validators.length; i++) {\n            assert(\n                ecrecover(\n                    noncedStateHash,\n                    v[i],\n                    r[i],\n                    s[i]\n                ) == validators[i]\n            );\n        }\n        state = newState;\n        nonce = nonce + 1;\n    }\n}",
  "sourcePath": "/home/aznagy/work/privatetx/tutorial-private-tx/contracts/PrivateContract.sol",
  "compiler": {
    "name": "solc",
    "version": "0.4.21+commit.dfe3193c.Emscripten.clang"
  },
  "schemaVersion": "2.0.0",
  "updatedAt": "2018-09-24T21:37:48.156Z"
}