{
  "contractName": "SSPermissions",
  "abi": [
    {
      "constant": true,
      "inputs": [
        {
          "name": "user",
          "type": "address"
        },
        {
          "name": "document",
          "type": "bytes32"
        }
      ],
      "name": "checkPermissions",
      "outputs": [
        {
          "name": "",
          "type": "bool"
        }
      ],
      "payable": false,
      "stateMutability": "view",
      "type": "function"
    }
  ],
  "bytecode": "0x60806040527f45ce99addb0f8385bd24f30da619ddcc0cadadab73e2a4ffb7801083086b3fc260005560018054600160a060020a0319908116733144de21da6de18061f818836fa3db8f3d6b69891790915560028054909116736c4b8b199a41b721e0a95df9860cf0a18732e76d17905534801561007c57600080fd5b506101148061008c6000396000f300608060405260043610603e5763ffffffff7c0100000000000000000000000000000000000000000000000000000000600035041663b36a9a7c81146043575b600080fd5b348015604e57600080fd5b50607173ffffffffffffffffffffffffffffffffffffffff600435166024356085565b604080519115158252519081900360200190f35b600080548214801560d3575060015473ffffffffffffffffffffffffffffffffffffffff8481169116148060d3575060025473ffffffffffffffffffffffffffffffffffffffff8481169116145b1560de5750600160e2565b5060005b929150505600a165627a7a723058206e5fb71c816ec82cc38d1f02e9ec54ca9ed22496b6df734cb9305943f92c21490029",
  "source": "pragma solidity ^0.4.21;\n\n// the original permissioning contract\ncontract SSPermissions {\n    bytes32 documentKeyId = 0x45ce99addb0f8385bd24f30da619ddcc0cadadab73e2a4ffb7801083086b3fc2;\n    address alice = 0x3144de21dA6De18061f818836Fa3db8F3D6b6989;\n    address bob = 0x6C4B8B199A41B721e0a95dF9860CF0A18732e76D;\n\n    /// Both Alice and Bob can access the specified document\n    function checkPermissions(address user, bytes32 document) public view returns (bool) {\n        if (document == documentKeyId && (user == alice || user == bob) ) return true;\n        return false;\n    }\n}",
  "sourcePath": "/home/aznagy/work/privatetx/tutorial-private-tx/contracts/SSPermissions.sol",
  "compiler": {
    "name": "solc",
    "version": "0.4.24+commit.e67f0147.Emscripten.clang"
  },
  "schemaVersion": "2.0.1",
  "updatedAt": "2018-09-19T15:01:09.138Z"
}