{
  "contractName": "SSPermissionsComplex",
  "abi": [
    {
      "constant": true,
      "inputs": [
        {
          "name": "",
          "type": "bytes32"
        },
        {
          "name": "",
          "type": "uint256"
        }
      ],
      "name": "permissions",
      "outputs": [
        {
          "name": "",
          "type": "address"
        }
      ],
      "payable": false,
      "stateMutability": "view",
      "type": "function"
    },
    {
      "inputs": [
        {
          "name": "docID",
          "type": "bytes32"
        },
        {
          "name": "users",
          "type": "address[]"
        }
      ],
      "payable": false,
      "stateMutability": "nonpayable",
      "type": "constructor"
    },
    {
      "anonymous": false,
      "inputs": [
        {
          "indexed": false,
          "name": "documentID",
          "type": "bytes32"
        }
      ],
      "name": "NewPermission",
      "type": "event"
    },
    {
      "constant": false,
      "inputs": [
        {
          "name": "docID",
          "type": "bytes32"
        },
        {
          "name": "users",
          "type": "address[]"
        }
      ],
      "name": "addPermission",
      "outputs": [],
      "payable": false,
      "stateMutability": "nonpayable",
      "type": "function"
    },
    {
      "constant": true,
      "inputs": [
        {
          "name": "user",
          "type": "address"
        },
        {
          "name": "document",
          "type": "bytes32"
        }
      ],
      "name": "checkPermissions",
      "outputs": [
        {
          "name": "",
          "type": "bool"
        }
      ],
      "payable": false,
      "stateMutability": "view",
      "type": "function"
    }
  ],
  "bytecode": "0x608060405234801561001057600080fd5b5060405161047d38038061047d83398101604090815281516020808401516000838152808352939093209290930180519193909261005292909184019061008d565b506040805183815290517fc9c0aaa34722ab321c1b63e5260aea0490399e28b07dc3baf60a391ef7c638419181900360200190a15050610119565b8280548282559060005260206000209081019282156100e2579160200282015b828111156100e25782518254600160a060020a031916600160a060020a039091161782556020909201916001909101906100ad565b506100ee9291506100f2565b5090565b61011691905b808211156100ee578054600160a060020a03191681556001016100f8565b90565b610355806101286000396000f3006080604052600436106100565763ffffffff7c0100000000000000000000000000000000000000000000000000000000600035041663047be4a3811461005b578063924e6afb1461009f578063b36a9a7c146100fb575b600080fd5b34801561006757600080fd5b50610076600435602435610140565b6040805173ffffffffffffffffffffffffffffffffffffffff9092168252519081900360200190f35b3480156100ab57600080fd5b506040805160206004602480358281013584810280870186019097528086526100f9968435963696604495919490910192918291850190849080828437509497506101849650505050505050565b005b34801561010757600080fd5b5061012c73ffffffffffffffffffffffffffffffffffffffff600435166024356101f2565b604080519115158252519081900360200190f35b60006020528160005260406000208181548110151561015b57fe5b60009182526020909120015473ffffffffffffffffffffffffffffffffffffffff169150829050565b6000828152602081905260409020541561019d57600080fd5b60008281526020818152604090912082516101ba92840190610276565b506040805183815290517fc9c0aaa34722ab321c1b63e5260aea0490399e28b07dc3baf60a391ef7c638419181900360200190a15050565b6000818152602081905260408120815b8154811015610269578473ffffffffffffffffffffffffffffffffffffffff16828281548110151561023057fe5b60009182526020909120015473ffffffffffffffffffffffffffffffffffffffff161415610261576001925061026e565b600101610202565b600092505b505092915050565b8280548282559060005260206000209081019282156102e5579160200282015b828111156102e5578251825473ffffffffffffffffffffffffffffffffffffffff191673ffffffffffffffffffffffffffffffffffffffff909116178255602090920191600190910190610296565b506102f19291506102f5565b5090565b61032691905b808211156102f157805473ffffffffffffffffffffffffffffffffffffffff191681556001016102fb565b905600a165627a7a72305820dee94e2485d2027dfe8896db29984d9530512fdb9b8257ef64c9831886db45b90029",
  "source": "pragma solidity ^0.4.21;\n\ncontract SSPermissionsComplex {\n\n    mapping(bytes32 => address[]) public permissions;\n\n    event NewPermission(bytes32 documentID);\n\n    function SSPermissionsComplex(bytes32 docID, address[] users) public {\n        permissions[docID] = users;\n        emit NewPermission(docID);\n    }\n\n    function addPermission(bytes32 docID, address[] users) public {\n        // if docID is already in use, we do not allow to add/modify\n        if (permissions[docID].length != 0) revert();\n        permissions[docID] = users;\n        emit NewPermission(docID);\n    }\n\n    /// Both Alice and Bob can access the specified document\n    function checkPermissions(address user, bytes32 document) public view returns (bool) {\n        address[] storage addresses = permissions[document];\n        for (uint i = 0; i < addresses.length; i++) {\n            if (addresses[i] == user) return true;\n        }\n        return false;\n    }\n}\n",
  "sourcePath": "/home/aznagy/work/privatetx/tutorial-private-tx/contracts/SSPermissionsComplex.sol",
  "compiler": {
    "name": "solc",
    "version": "0.4.24+commit.e67f0147.Emscripten.clang"
  },
  "schemaVersion": "2.0.1",
  "updatedAt": "2018-09-19T15:43:04.372Z"
}