{
  "contractName": "SSPermissionsSimpleNodoc",
  "abi": [
    {
      "constant": true,
      "inputs": [
        {
          "name": "",
          "type": "uint256"
        }
      ],
      "name": "addresses",
      "outputs": [
        {
          "name": "",
          "type": "address"
        }
      ],
      "payable": false,
      "stateMutability": "view",
      "type": "function"
    },
    {
      "inputs": [
        {
          "name": "_addresses",
          "type": "address[]"
        }
      ],
      "payable": false,
      "stateMutability": "nonpayable",
      "type": "constructor"
    },
    {
      "constant": true,
      "inputs": [
        {
          "name": "user",
          "type": "address"
        },
        {
          "name": "document",
          "type": "bytes32"
        }
      ],
      "name": "checkPermissions",
      "outputs": [
        {
          "name": "",
          "type": "bool"
        }
      ],
      "payable": false,
      "stateMutability": "view",
      "type": "function"
    }
  ],
  "bytecode": "0x6060604052341561000f57600080fd5b60405161028d38038061028d833981016040528080519091019050600081805161003d929160200190610044565b50506100d2565b82805482825590600052602060002090810192821561009b579160200282015b8281111561009b5782518254600160a060020a031916600160a060020a039190911617825560209290920191600190910190610064565b506100a79291506100ab565b5090565b6100cf91905b808211156100a7578054600160a060020a03191681556001016100b1565b90565b6101ac806100e16000396000f30060606040526004361061004b5763ffffffff7c0100000000000000000000000000000000000000000000000000000000600035041663b36a9a7c8114610050578063edf26d9b14610093575b600080fd5b341561005b57600080fd5b61007f73ffffffffffffffffffffffffffffffffffffffff600435166024356100d2565b604051901515815260200160405180910390f35b341561009e57600080fd5b6100a960043561014b565b60405173ffffffffffffffffffffffffffffffffffffffff909116815260200160405180910390f35b6000805b60005481101561013f578373ffffffffffffffffffffffffffffffffffffffff1660008281548110151561010657fe5b60009182526020909120015473ffffffffffffffffffffffffffffffffffffffff1614156101375760019150610144565b6001016100d6565b600091505b5092915050565b600080548290811061015957fe5b60009182526020909120015473ffffffffffffffffffffffffffffffffffffffff169050815600a165627a7a72305820ea03245fabd15601ca38dc36494e409753e511c92376d1635ed0f3b64d07b2210029",
  "source": "pragma solidity ^0.4.21;\n\n// the permissioning contract for the private tx tutorial\n// irrespective of document key\n// shouldn't be used for production (duh)\ncontract SSPermissionsSimpleNodoc {\n    address[] public addresses;\n\n    function SSPermissionsSimpleNodoc(address[] _addresses) public {\n        addresses = _addresses;\n    }\n\n    /// We only check users here\n    function checkPermissions(address user, bytes32 document) public view returns (bool) {\n        for (uint i = 0; i < addresses.length; i++) {\n            if (addresses[i] == user) return true;\n        }\n        return false;\n    }\n}\n",
  "sourcePath": "/home/aznagy/work/privatetx/tutorial-private-tx/contracts/SSPermissionsSimpleNodoc.sol",
  "compiler": {
    "name": "solc",
    "version": "0.4.21+commit.dfe3193c.Emscripten.clang"
  },
  "schemaVersion": "2.0.0",
  "updatedAt": "2018-10-04T14:12:41.552Z"
}