{
  "contractName": "SSPermissionsComplex",
  "abi": [
    {
      "constant": true,
      "inputs": [
        {
          "name": "",
          "type": "bytes32"
        },
        {
          "name": "",
          "type": "uint256"
        }
      ],
      "name": "permissions",
      "outputs": [
        {
          "name": "",
          "type": "address"
        }
      ],
      "payable": false,
      "stateMutability": "view",
      "type": "function"
    },
    {
      "inputs": [
        {
          "name": "docID",
          "type": "bytes32"
        },
        {
          "name": "users",
          "type": "address[]"
        }
      ],
      "payable": false,
      "stateMutability": "nonpayable",
      "type": "constructor"
    },
    {
      "anonymous": false,
      "inputs": [
        {
          "indexed": false,
          "name": "documentID",
          "type": "bytes32"
        }
      ],
      "name": "NewPermission",
      "type": "event"
    },
    {
      "constant": false,
      "inputs": [
        {
          "name": "docID",
          "type": "bytes32"
        },
        {
          "name": "users",
          "type": "address[]"
        }
      ],
      "name": "addPermission",
      "outputs": [],
      "payable": false,
      "stateMutability": "nonpayable",
      "type": "function"
    },
    {
      "constant": true,
      "inputs": [
        {
          "name": "user",
          "type": "address"
        },
        {
          "name": "document",
          "type": "bytes32"
        }
      ],
      "name": "checkPermissions",
      "outputs": [
        {
          "name": "",
          "type": "bool"
        }
      ],
      "payable": false,
      "stateMutability": "view",
      "type": "function"
    }
  ],
  "bytecode": "0x6060604052341561000f57600080fd5b60405161047738038061047783398101604052808051919060200180516000848152602081905260409020920191905081805161005092916020019061008b565b507fc9c0aaa34722ab321c1b63e5260aea0490399e28b07dc3baf60a391ef7c638418260405190815260200160405180910390a15050610119565b8280548282559060005260206000209081019282156100e2579160200282015b828111156100e25782518254600160a060020a031916600160a060020a0391909116178255602092909201916001909101906100ab565b506100ee9291506100f2565b5090565b61011691905b808211156100ee578054600160a060020a03191681556001016100f8565b90565b61034f806101286000396000f3006060604052600436106100565763ffffffff7c0100000000000000000000000000000000000000000000000000000000600035041663047be4a3811461005b578063924e6afb1461009d578063b36a9a7c146100f3575b600080fd5b341561006657600080fd5b610074600435602435610136565b60405173ffffffffffffffffffffffffffffffffffffffff909116815260200160405180910390f35b34156100a857600080fd5b6100f16004803590604460248035908101908301358060208181020160405190810160405280939291908181526020018383602002808284375094965061017a95505050505050565b005b34156100fe57600080fd5b61012273ffffffffffffffffffffffffffffffffffffffff600435166024356101ea565b604051901515815260200160405180910390f35b60006020528160005260406000208181548110151561015157fe5b60009182526020909120015473ffffffffffffffffffffffffffffffffffffffff169150829050565b6000828152602081905260409020541561019357600080fd5b60008281526020819052604090208180516101b292916020019061026e565b507fc9c0aaa34722ab321c1b63e5260aea0490399e28b07dc3baf60a391ef7c638418260405190815260200160405180910390a15050565b6000818152602081905260408120815b8154811015610261578473ffffffffffffffffffffffffffffffffffffffff16828281548110151561022857fe5b60009182526020909120015473ffffffffffffffffffffffffffffffffffffffff1614156102595760019250610266565b6001016101fa565b600092505b505092915050565b8280548282559060005260206000209081019282156102df579160200282015b828111156102df578251825473ffffffffffffffffffffffffffffffffffffffff191673ffffffffffffffffffffffffffffffffffffffff919091161782556020929092019160019091019061028e565b506102eb9291506102ef565b5090565b61032091905b808211156102eb57805473ffffffffffffffffffffffffffffffffffffffff191681556001016102f5565b905600a165627a7a7230582088531767c489de2ba620f81f51ef778b67ad188861ad48dcbb8ffe7eb10c915f0029",
  "source": "pragma solidity ^0.4.21;\n\ncontract SSPermissionsComplex {\n\n    mapping(bytes32 => address[]) public permissions;\n\n    event NewPermission(bytes32 documentID);\n\n    function SSPermissionsComplex(bytes32 docID, address[] users) public {\n        permissions[docID] = users;\n        emit NewPermission(docID);\n    }\n\n    function addPermission(bytes32 docID, address[] users) public {\n        // if docID is already in use, we do not allow to add/modify\n        if (permissions[docID].length != 0) revert();\n        permissions[docID] = users;\n        emit NewPermission(docID);\n    }\n\n    function checkPermissions(address user, bytes32 document) public view returns (bool) {\n        address[] storage addresses = permissions[document];\n        for (uint i = 0; i < addresses.length; i++) {\n            if (addresses[i] == user) return true;\n        }\n        return false;\n    }\n}\n",
  "sourcePath": "/home/aznagy/work/privatetx/tutorial-private-tx/contracts/SSPermissionsComplex.sol",
  "compiler": {
    "name": "solc",
    "version": "0.4.21+commit.dfe3193c.Emscripten.clang"
  },
  "schemaVersion": "2.0.0",
  "updatedAt": "2018-10-04T14:12:41.554Z"
}