{
  "contractName": "Test",
  "abi": [
    {
      "constant": true,
      "inputs": [],
      "name": "x",
      "outputs": [
        {
          "name": "",
          "type": "bytes32"
        }
      ],
      "payable": false,
      "stateMutability": "view",
      "type": "function"
    },
    {
      "constant": false,
      "inputs": [
        {
          "name": "_x",
          "type": "bytes32"
        }
      ],
      "name": "setX",
      "outputs": [],
      "payable": false,
      "stateMutability": "nonpayable",
      "type": "function"
    }
  ],
  "bytecode": "0x608060405234801561001057600080fd5b5060bf8061001f6000396000f30060806040526004361060485763ffffffff7c01000000000000000000000000000000000000000000000000000000006000350416630c55699c8114604d578063bc64b76d146071575b600080fd5b348015605857600080fd5b50605f6088565b60408051918252519081900360200190f35b348015607c57600080fd5b506086600435608e565b005b60005481565b6000555600a165627a7a72305820270c463fb911eabcdd6912d4576206ce13c61cfd6698c4a06e9a4a43a39850490029",
  "source": "pragma solidity ^0.4.11;\n\ncontract Test {\n    \n    bytes32 public x;\n\n    function setX(bytes32 _x) public { \n        x = _x; \n    }\n}",
  "sourcePath": "/home/aznagy/work/privatetx/tutorial-private-tx/contracts/Test.sol",
  "compiler": {
    "name": "solc",
    "version": "0.4.24+commit.e67f0147.Emscripten.clang"
  },
  "schemaVersion": "2.0.1",
  "updatedAt": "2018-09-19T15:01:09.139Z"
}