{
  "contractName": "Test",
  "abi": [
    {
      "constant": true,
      "inputs": [],
      "name": "x",
      "outputs": [
        {
          "name": "",
          "type": "bytes32"
        }
      ],
      "payable": false,
      "stateMutability": "view",
      "type": "function"
    },
    {
      "constant": false,
      "inputs": [
        {
          "name": "_x",
          "type": "bytes32"
        }
      ],
      "name": "setX",
      "outputs": [],
      "payable": false,
      "stateMutability": "nonpayable",
      "type": "function"
    }
  ],
  "bytecode": "0x6060604052341561000f57600080fd5b60bb8061001d6000396000f30060606040526004361060485763ffffffff7c01000000000000000000000000000000000000000000000000000000006000350416630c55699c8114604d578063bc64b76d14606f575b600080fd5b3415605757600080fd5b605d6084565b60405190815260200160405180910390f35b3415607957600080fd5b6082600435608a565b005b60005481565b6000555600a165627a7a72305820d1e210d44c61253645e3d2b1b43dfd88c5d693273755b039f391f22e42b342800029",
  "source": "pragma solidity ^0.4.11;\n\ncontract Test {\n    \n    bytes32 public x;\n\n    function setX(bytes32 _x) public { \n        x = _x; \n    }\n}",
  "sourcePath": "/home/aznagy/work/privatetx/tutorial-private-tx/contracts/Test.sol",
  "compiler": {
    "name": "solc",
    "version": "0.4.21+commit.dfe3193c.Emscripten.clang"
  },
  "schemaVersion": "2.0.0",
  "updatedAt": "2018-09-24T21:37:48.157Z"
}